:020000040800F2
:1000000030070020810100083D250008CD200008B0
:1000100000000000000000000000000000000000E0
:10002000000000000000000000000000552600084D
:1000300000000000000000003F25000857260008CF
:10004000B1010008B1010008B1010008B1010008C8
:10005000B1010008B1010008B1010008B1010008B8
:1000600000000000B1010008B1010008B101000862
:10007000B1010008B101000800000000B101000852
:100080000000000000000000000000000000000070
:10009000B10100080000000000000000B1010008EC
:1000A00000000000B1010008000000000000000096
:1000B000B1010008B10100080000000000000000CC
:1000C00000F002F800F04CF812A030C808382418EC
:1000D0002D18AC4201D100F043F80FCCA246AB463C
:1000E0000CA730CF2D1B083F3F197C427F1E544484
:1000F0002D090426F441641EAC4201D300F030F80F
:100100000126334200D0FB1A3343984754465D46DC
:10011000DFE70000982C0000B82C0000103A02D352
:1001200078C878C1FAD8520701D330C830C101D598
:1001300004680C6070470000704700000023002432
:1001400000250026103A01D378C1FBD8520700D30E
:1001500030C100D50B6070471FB51FBD10B510BD75
:1001600000F098F81146FFF7F7FF02F02DFB00F0C2
:10017000B0F803B4FFF7F2FF03BC00F0B7F80000DB
:100180000F4880F308880F480168090E0E4A914213
:1001900005D10E480E4901600E480F4901600F4815
:1001A00080470F480047FEE7FEE7FEE7FEE7FEE771
:1001B000FEE700000B480C490C4A0D4B704700004D
:1001C00030070020040000001F000000341002402F
:1001D0000100000000000140000000005F26000850
:1001E000C10000083001002030070020300300204B
:1001F00030030020034610B50B439B070FD1042AA0
:100200000DD308C810C9121FA342F8D018BA21BADA
:10021000884201D9012010BD0020C04310BD002A32
:1002200003D0D30703D0521C07E0002010BD037891
:100230000C78401C491C1B1B07D103780C78401C10
:10024000491C1B1B01D1921EF1D1184610BD01E0C3
:1002500004C0091F0429FBD28B0701D50280801C32
:10026000C90700D00270704700290BD0C30702D025
:100270000270401C491E022904D3830702D5028064
:10028000801C891EE3E70022EEE70022DFE77047CB
:1002900070477047754600F025F8AE460500694680
:1002A0005346C008C000854618B020B5FFF782FF4E
:1002B00060BCB64600260027C0C5C0C5C0C5C0C5C5
:1002C000C0C5C0C5C0C5C0C5403D490849008D4630
:1002D000704710B50446C046C0462046FFF749FFA8
:1002E00010BD000000487047100000200149182090
:1002F000ABBEFEE7260002007047000080B582B06A
:1003000001A9087008480122642301F085FD02B0AC
:1003100080BDC04610B504468AB203486423214616
:1003200001F07AFD10BDC046D4000020F0B585B0C4
:100330000520040740260125204631462A4600F0C4
:1003400054FC1427384600F06BFB0022204631464F
:1003500000F04BFC384600F063FB204631462A464D
:1003600000F043FC384600F05BFB6F02014D2E4667
:1003700002E0C046891300002046394600F030FCF8
:10038000002804D0012000F04BFB761EF4D101219F
:1003900004910297002720463A4600F026FC0226E8
:1003A000204631463A46029F00F01FFC1220FFF71C
:1003B000A5FF20463146049A00F017FC2E46204641
:1003C000394600F00DFC002804D0012000F028FB85
:1003D000761EF4D10126002203922046314600F019
:1003E00004FC022720463946039A00F0FEFB304603
:1003F000FFF784FF20463946324600F0F6FB2046E0
:100400003146324600F0F1FB20463946039A00F0AF
:10041000ECFB27200190FFF771FF2046394632465A
:1004200000F0E3FB20463146324600F0DEFB20467A
:1004300039460497039A00F0D8FB3046FFF75EFF79
:1004400020463946324600F0D0FB2046314632463F
:1004500000F0CBFB20463946039F3A4600F0C5FB2F
:100460003046FFF74BFF20460499324600F0BDFBB3
:10047000204631463A4600F0B8FB204604993A46F9
:1004800000F0B3FB1120FFF739FF2046049F3946E7
:10049000324600F0AAFB20463146324600F0A5FB6A
:1004A00020463946039F3A4600F09FFB3046FFF74F
:1004B00025FF20460499324600F097FB204631463E
:1004C0003A4600F092FB204604993A4600F08DFB34
:1004D0004420FFF713FF2046049F3946324600F0C0
:1004E00084FB20463146324600F07FFB20463946E9
:1004F000039F3A4600F079FB3846FFF7FFFE20469F
:10050000049F3946324600F070FB204631463246A1
:1005100000F06BFB20463946039F3A4600F065FB2E
:100520000F20FFF7EBFE20460499324600F05DFBFA
:10053000204631463A4600F058FB204604993A4698
:1005400000F053FB4520FFF7D9FE2046049F3946B3
:10055000324600F04AFB20463146324600F045FB69
:1005600020463946039A00F040FB0198FFF7C6FE8B
:1005700020463946324600F038FB204631463246A6
:1005800000F033FB20463946039A00F02EFB30463C
:10059000FFF7B4FE20463946324600F026FB2046DF
:1005A0003146324600F021FB20463946039F3A4649
:1005B00000F01BFB3846FFF7A1FE2046049F39469A
:1005C000324600F012FB20463146324600F00DFB69
:1005D00020463946039F3A4600F007FB3846FFF7AE
:1005E0008DFE20460499324600F0FFFA204631463F
:1005F0003A4600F0FAFA204604993A4600F0F5FA35
:100600003C20FFF77BFE2046049F3946324600F02F
:10061000ECFA20463146324600F0E7FA20463946E9
:10062000039A00F0E2FA0520FFF768FE20463946FB
:10063000324600F0DAFA20463146039F3A4600F08F
:10064000D4FA204604993A4600F0CFFA2120FFF769
:1006500055FE204604990F46324600F0C6FA204661
:100660003146324600F0C1FA20463946039F3A46E9
:1006700000F0BBFA3846FFF741FE2046049F39469A
:10068000324600F0B2FA20463146324600F0ADFA6A
:1006900020463946039F3A4600F0A7FA8020009092
:1006A000FFF72CFE20460499324600F09EFA2046C1
:1006B00031463A4600F099FA204604993A4600F04D
:1006C00094FA1820FFF71AFE2046049F3946324656
:1006D00000F08BFA20463146324600F086FA20467A
:1006E0003946039A00F081FA0098FFF707FE20468A
:1006F0003946324600F079FA20463146039F3A46A1
:1007000000F073FA204604993A4600F06EFA4E2043
:10071000FFF7F4FD2046049F3946324600F065FAA3
:1007200020463146324600F060FA20463946039FA3
:100730003A4600F05AFA3846FFF7E0FD20460499A1
:10074000324600F052FA204631463A4600F04DFA61
:10075000204604993A4600F048FA4F20FFF7CEFDB4
:100760002046049F3946324600F03FFA2046314683
:10077000324600F03AFA20463946039A00F035FA3C
:100780000198FFF7BBFD20463946324600F02DFAAE
:1007900020463146324600F028FA20463946039A70
:1007A00000F023FA3046FFF7A9FD20463946029FA4
:1007B000324600F01AFA2046394600F011FA0028B5
:1007C00004D0012000F02CF96D1EF4D105B0F0BD6D
:1007D00010B5924C052000070121490200F000FAF3
:1007E000002804D0012000F01BF9641EF2D110BDD6
:1007F000F0B581B0052005070124002728462146D1
:100800003A4600F0F2F90226284631463A4600F010
:10081000ECF94E20FFF772FD28463146224600F0E3
:10082000E4F928462146224600F0DFF92846314601
:100830003A4600F0DAF93846FFF760FD28463146BF
:10084000224600F0D2F9284621463A4600F0CDF97A
:10085000284631463A4600F0C8F94F20FFF74EFDD2
:1008600028463146224600F0C0F928462146224655
:1008700000F0BBF9284631463A4600F0B6F9272089
:10088000FFF73CFD28463146224600F0AEF92846E7
:100890002146224600F0A9F9284631463A4600F0A2
:1008A000A4F92046FFF72AFD28463146224600F0EB
:1008B0009CF901B0F0BDF0B581B0064605200507F2
:1008C000012428462146224600F08FF90227002203
:1008D0002846394600F089F93046FFF70FFD2846D3
:1008E0003946224600F081F901B0F0BDF0B581B083
:1008F0000520050701240027284621463A4600F036
:1009000074F90226284631463A4600F06EF9102066
:10091000FFF7F4FC28463146224600F066F92846E7
:100920002146224600F061F9284631463A4600F059
:100930005CF92046FFF7E2FC28463146224600F0EB
:1009400054F901B0F0BDF0B581B0FFF751FF0520BB
:1009500005070124002628462146324600F045F9C5
:10096000022728463946324600F03FF92420FFF797
:10097000C5FC28463946224600F037F901B0F0BDE3
:10098000F0B581B00520040701250027204629463F
:100990003A4600F02AF90226204631463A4600F04F
:1009A00024F92220FFF7AAFC204631462A4600F00F
:1009B0001CF9204629462A4600F017F92046314600
:1009C0003A4600F012F9F720FFF798FC204631462E
:1009D0002A4600F00AF9204629463A4600F005F971
:1009E000204631463A4600F000F92020FFF786FC09
:1009F000204631462A4600F0F8F8084E69022046A3
:100A000000F0EEF8002804D0012000F009F8761E6E
:100A1000F4D1642000F004F801B0F0BD89130000A7
:100A2000B0B5044600F0EAF80546601C02D0044860
:100A30000078041900F0E2F8401BA042FAD3B0BDE0
:100A400000000020F0B58BB00B68002B00D1BAE09D
:100A500002465E48824201D0062000E0022001905A
:100A6000104620300090002635463746039102920A
:100A70000BE02243564802607F1C0B681846F84082
:100A8000361DAD1C002800D19DE001200890B84023
:100A900003400693F0D004970A960A46032631468F
:100AA000A940C9432F4655682C463440631E012B8C
:100AB00009910795059712D802998B68099E3340D2
:100AC000D6680A460999BE401E439660EB06DB0FC6
:100AD000049FBB40566886431E43566008E0032CC3
:100AE000029A049F04D1344603990A9E059D1DE095
:100AF000D068084003998B68059DAB400343D360E1
:100B0000022C0A9E12D11C2030400F228240FB088A
:100B10009B00009EF45894430A6982402243F2509D
:100B20000A9E029A4868032407900440AC4010686B
:100B3000099B18402043106007988003800F9BD0CA
:100B400024490868089B18430860032039468143FC
:100B50002148085805231B079A4205D01F4B9A428B
:100B6000019C02D1089C00E000240C2333400F2696
:100B70009E40B043184A89189C4004430C601448B6
:100B8000826803994868C30202D5069C224301E0AB
:100B9000069CA2430E4B9A60DA6883020A9E01D536
:100BA000224300E0A2430A4BDA605A68830301D56E
:100BB000224300E0A243064B5A601A68C00300D5E6
:100BC00057E7A24356E70BB0F0BDC04600080050FF
:100BD00000040140341002400800014000040050AD
:100BE00000690840411E88417047002A02D018223F
:100BF00081507047282281507047000001480068EA
:100C00007047C0462C010020B0B502460346403371
:100C10005C780220202C17D11C78012C14D02420C1
:100C20005870106802680124A2430260220305681C
:100C30009543056002680A43026001682143016030
:100C40000020187020215970B0BDB0B5024603468F
:100C500040335C780220202C17D11C78012C14D052
:100C600024205870106802680124A24302600F22F9
:100C70001202056895430902294301600168214376
:100C800001600020187020215970B0BDF0B581B00E
:100C9000002822D0054640356978002905D1002179
:100CA0002970044600F016FB204624216970016873
:100CB0000B68012293430B600F231B0644689C437F
:100CC0000C618C681C4B1C408C608468C668012ECB
:100CD00006D1D60334438C600CE0012001B0F0BD96
:100CE0002127BF023C438C60022E03D1D4024E6800
:100CF000264302E0D4024E68A6434E604C680F4E75
:100D000026434E60CC681C40CC60036944691C4398
:100D100083691B022343CB60C369046A1C430C60D4
:100D20000B6813430B600021416420226A70016349
:100D30000846A97001B0F0BDFF7FFFFF00800002F0
:100D4000F0B585B004910446054640356978022027
:100D5000202900D0ACE02978012900D1A8E0019336
:100D60000292012003902870FFF748FF0646206892
:100D70008169090419D4222169701021A970002207
:100D80006264019961850299616201926263618D79
:100D9000090ABE49BE4F25D0049A0A40416839402D
:100DA000001D029001234B4828E00398C70302E08E
:100DB00081693942DFD019212046324601F088F995
:100DC00000286AD1FFF71AFF811B20681A29EFD388
:100DD00081693942ECD0606C2021084360646970FD
:100DE000012070E0638D42683A400F460499394013
:100DF000DFB23F047918001D029035480A9F0A436C
:100E00000243029802602385608D002848D0049830
:100E10009E490840049012E0608D208521684A6850
:100E20009C4B1A40C0B20004104301225206091D17
:100E3000049B184310430860608D002830D0204682
:100E40003946324601F07EFA002826D1606A2168D0
:100E5000496A0170608D401E6085606A401C606256
:100E6000208D401E2085618D0029E5D00004E3D14E
:100E700000968021002220463B4601F0E5F900283B
:100E80000BD1608D000AC7D0FF20208521684868FB
:100E9000804A1040091D804ACAE7039805B0F0BD9A
:100EA00020463946324601F0B3FA0028039801D0B3
:100EB00005B0F0BD20682021C1614268774B134026
:100EC00043606970019800212970A97005B0F0BDD8
:100ED0000024000200240101F0B587B00691054608
:100EE0000446403461780220202900D0B4E0217803
:100EF000012900D1B0E003930492012005902070F5
:100F0000FFF77CFE074628688169090418D421216F
:100F100061701021A17000216964039A6A85049AA6
:100F20006A6202916963012105914E06698D090A81
:100F3000E24A039621D0FF232B850126360620E0C6
:100F40000598C60302E081693142E0D019212846A4
:100F50003A4601F0BDF8002873D1FFF74FFEC11BE0
:100F600028681A29EFD381693142ECD0686C2021BE
:100F7000084368646170012079E06B8D2B85002B3C
:100F80007AD0049A11788162698D491E6985511C55
:100F9000CA4A6962591E298506991140DBB21B04B1
:100FA000591831434368C64E33400B43012149036E
:100FB000194341600C9E688D002845D0069810406A
:100FC000069011E0688D288529684A68BF4B1A4051
:100FD000C0B200041043091D039A069B1843104336
:100FE0000860688D00282FD0284631463A4601F027
:100FF00052FA002825D12868696A0A788262688DC9
:10100000401E6885481C6862288D401E2885698DB1
:101010000029E6D00004E4D1009780210022284670
:10102000334601F011F900280BD1688D000AC9D0B0
:10103000FF20288529684868A44A1040091DA24A53
:10104000CBE7059807B0F0BD284631463A4601F097
:10105000DFF90028059801D007B0F0BD28682021ED
:10106000C16142689A4B134043606170029800214D
:101070002170A17007B0F0BD069911404368904EF1
:1010800033400B4303990B43059990E7FF0300009E
:10109000009800FC009C00FC0000FF0100E800FE3E
:1010A000F0B589B00446074640377D780220202DF0
:1010B00009D10E9E002E08D00F9D002D05D006955B
:1010C0003D78012D06D109B0F0BD012041026164D7
:1010D00009B0F0BD03960493029207910120059098
:1010E0003870FFF78BFD06462068816909042DD40E
:1010F0000896109D212179704021B9700026666400
:10110000069961850399616266636C49079A0A4092
:101110000499C9B20904079289184268684B1340C0
:10112000C918684A89184160204606952946089AD8
:1011300001F0B1F9002845D10396206804990129EE
:1011400025D10299C9B28162089D30E00598C50396
:1011500002E081692942CBD019212046324600F0B5
:10116000B7FF002810D1FFF749FD811B20681A291D
:10117000EFD381692942ECD0606C20210843606480
:10118000797000203870B870059809B0F0BD0299E8
:10119000090A816220460699089D2A4601F07BF9DA
:1011A0000028039E0ED121680298C0B28862009583
:1011B0008021002520462A46069B01F045F800289C
:1011C000039E03D03E70059809B0F0BD0395012041
:1011D0004606618D090A3C4B3C490590049606D0B1
:1011E00020680A4641681140021DFF2008E0608D1A
:1011F000226853680B40C1B209041943121D3346DB
:10120000079E1943314311602085089A069E12E01B
:10121000608D208521684A682C4B1A40C0B20004BA
:101220001043091D049A079B104318430860608D02
:101230000028089A2CD02046314601F02CF90028CD
:10124000A2D12068616A0A788262608D401E608542
:10125000481C6062208D401E2085618D0029E6D0EB
:101260000004E4D1089800908021002220463346F3
:1012700000F0EAFF002887D1608D000AC8D0FF2067
:10128000208521684868114A1040091D0E4ACAE7A6
:101290002046314601F0BCF80028059800D012E73E
:1012A00020682021C1614268094B13404360797076
:1012B00003983870B87009B0F0BDC046FF03000055
:1012C000009800FC002000010000FF01009C00FCD1
:1012D00000E800FEF0B589B0002708970797069749
:1012E0000597049700681849884201D009B0F0BDFD
:1012F00016490868012630430860086830400390AA
:101300000324089407940697122002900590102059
:101310000490039805200007019004AD2946FFF7CB
:1013200091FB08960794069702980590B0020490E6
:1013300001982946FFF786FB7005044AD1680143EE
:10134000D16009B0F0BDC046005400402C100240EE
:101350001D48007802490A68101808607047C046A6
:101360002C01002080B50848016840220A43026031
:10137000032000F00BF8002801D0012080BD00F010
:1013800027F8002080BDC0460020024070B504460A
:101390007D20C0000C4E317801F000FC01460B4866
:1013A000006801F0FBFB00F077FE0125032C08D854
:1013B000002806D10025E84321462A4600F014F80B
:1013C0007460284670BDC046000000200800002060
:1013D00004480168012211430160110742680A4371
:1013E0004260704734100240002805D403220346AF
:1013F00093430A4A9A1803E00C220240064BD21883
:101400008007C00E8901C9B28140FF238340106864
:10141000984308431060704714ED00E000E400E0DA
:10142000F0B589B00668B106664F0DD4B10775D422
:1014300071077CD4310700D584E00024310600D543
:101440008CE0204609B0F0BD089001252907183F1F
:1014500038680840069002D138680843386002971F
:1014600003912F02584C2068C00511D420683843DE
:101470002060FFF7C3FB06462068384208D1FFF71B
:10148000BDFB801B6428F7D90324204609B0F0BDBA
:10149000019503252E040898436819463140494CAC
:1014A000503C2268049200952A0505920796B142A5
:1014B00007D1049A5340059A134002D02268920340
:1014C00077D4049406683F4A1268079B1A4050D0AC
:1014D0008A424ED0202131404BD03A4C2168019AAB
:1014E000D2042368134323602368934323600A468E
:1014F000079B9A432260394227463BD0FFF77EFB89
:101500000546B14C3868800557D4FFF777FB401B80
:10151000A042F7D9009C204609B0F0BD391F0A68E7
:101520000C239A43836813430B60710782D5032110
:1015300089023A1F13688B43C16819431160310750
:1015400000D47AE7032109033A1F13688B4301692A
:10155000194311600024310600D472E703218B0483
:10156000391F0A689A43406910430860204609B051
:10157000F0BD144FB10612D542681146079B1940C1
:10158000994209D10598024003231B050498046879
:101590009C431443046008983A680A433A600699E9
:1015A000002900D042E7029B1968039A9143196011
:1015B0003CE7019C204609B0F0BD08980668B106DA
:1015C000EDD5D9E75010024000700040F0B583B06F
:1015D000002846D00E4602907A4800680121019109
:1015E0000840B04216D2774908680125A843304325
:1015F0000860754CFFF702FB0746724800682840F8
:10160000B04207D0FFF7FAFAC01BA042F5D9032079
:1016100003B0F0BD029D286881076C4C05D5216898
:10162000F0229143AA680A432260C0071CD1654892
:10163000006801273840B04224D962490868B8439D
:101640000860614CFFF7DAFA05465E480068C0079B
:1016500018D0FFF7D3FA401BA042F6D9032003B0FD
:10166000F0BD012003B0F0BD6A6821460C3909685D
:10167000012A34D0032A2DD0022A72D1890301987D
:101680002BD52FE0029B18684107504C06D5072147
:10169000090222688A43D96811432160000707D5EF
:1016A0000720C002216881431869C00008432060F8
:1016B00021680807820F46487A44127952009744FD
:1016C0000154735B38042146083909680904490F3D
:1016D000884069E08901019804D403B0F0BD49074E
:1016E0000198FAD5216803200190814311432160BC
:1016F000FFF784FA07466868334D03282BD0022889
:101700001ED001280AD120680C21014004298ED066
:10171000FFF774FAC01BA842F5D909E0206800075A
:10172000800F00D183E7FFF769FAC01BA842F5D903
:10173000019803B0F0BDFFF761FAC01BA842F7D8CB
:1017400020680C2101400829F5D170E7FFF756FA0F
:10175000C01BA842ECD820680C2101400C29F5D10F
:1017600065E789050198B8D5BCE720460C380068C4
:10177000C00612D5194817E08A02120F154B9A5C61
:101780000902890F491C2368DB0309D420460C3861
:101790000068C00603D5114802E00F4804E00E4877
:1017A0004243104601F0FAF921680906090F0C4A74
:1017B000515CC8400B4908600B480068FFF7E6FD24
:1017C00003B0F0BD00200240881300000C1002405E
:1017D00000127A00A22D00080024F40000093D0048
:1017E000922D00080800002004000020F0B589B008
:1017F000002851D0624EF1680C220A400692012165
:1018000005910904F76804910F4007900078C0071C
:1018100010D00698082806D006980C2800D0D1E0F1
:10182000002F00D1CEE03068800303D507984068D0
:1018300000284DD007980078800730D407980078AA
:10184000C00648D407980078000762D40799087842
:10185000400700D596E04C6A002C1AD006980C2858
:1018600000D037E1012C33D0F068049A0240079B86
:10187000996A8A422CD10F2189040140DA6A914287
:1018800026D1032189050840196B8842059800D0AC
:1018900020E2002009B0F0BD012009B0F0BD079B97
:1018A000D868810604D53168202211433160904305
:1018B0000699042906D006990C2900D0A8E0002F2B
:1018C00000D0A5E0316800283AD10422114037D079
:1018D000059809B0F0BD012044020699002900D105
:1018E000ACE03168079A92690002002A00D1E1E079
:1018F00001433160FFF782F905463068204200D08D
:10190000FEE0FFF77BF9401B0228F6D9032009B05F
:10191000F0BD306D07994969002900D1B9E0012176
:1019200008433065FFF76AF90546306D80078DD4AE
:10193000FFF764F9401B0228F7D9032009B0F0BD76
:101940001F21090272688A431969090211437160F3
:1019500031680922914301433160F1680807820F21
:10196000DD4852007A449288520097440300FA00FE
:10197000A401100170680004410F049888409AE1A6
:101980000010024001221107B06B0840029002D102
:10199000B06B0843B063019103921402D54F3868CD
:1019A000C00523D4386820433860FFF727F905467F
:1019B000386820421AD1FFF721F9411B032064291E
:1019C000F6D987E1306807994968049A914209D0AD
:1019D00005221204914200D0A3E00599890408432E
:1019E00030603068049908433060A9E00798816846
:1019F000306D039B5F02002900D1F5E00522120241
:101A0000914200D1EAE0A14200D001E1204304E18B
:101A10003168002800D1A9E00922914301433160D7
:101A2000FFF7ECF805463068400700D5C0E0FFF747
:101A3000E5F8411B03200229F5D94BE13168214229
:101A400004D007998969002900D143E107204003A8
:101A500071688143079B186A01437160FF21090681
:101A600072688A43D969090689187160400B049924
:101A70008140F0680006000F9B4A105CC1409B4803
:101A800001609B480068FFF781FC002800D021E13D
:101A9000D8E6012188433065FFF7B0F80546306D80
:101AA000800700D4D2E6FFF7A9F8411B03200229E2
:101AB000F5D90FE181433160FFF7A0F805463068A2
:101AC000204200D1BEE6FFF799F8411B032002290E
:101AD000F5D9FFE001273806316881433160FFF70F
:101AE0008DF80546022C6DD17F063068384200D152
:101AF000AEE0FFF783F8411B03200229F5D9E9E0A6
:101B00000720400371688143079A106A0843706098
:101B1000FF20000671688143D0690006401870609C
:101B200090E6049A9043306030681040089008981E
:101B300005988004326882433260002900D1A5E014
:101B400005984404FFF75AF805463068204200D053
:101B500070E6FFF753F8401B6428F6D9032009B05C
:101B6000F0BD3068C00671D55E48A4E00120814315
:101B70003160FFF743F805463068400700D45DE662
:101B8000FFF73CF8411B03200229F5D9A2E08A02A5
:101B9000120F524B9A5C0902890F491CF368049C8E
:101BA000234200D083E03068C0067FD54D487EE0F8
:101BB0001F200002716881430798006900020843F2
:101BC00070603BE67C063068204200D161E6FFF79A
:101BD00015F8411B03200229F5D97BE0990208433F
:101BE0003065306D204318E0A04330659802316DB8
:101BF00081433165FFF702F805463F4C306D3842AE
:101C00001AD0FEF7FBFF411B0320A142F6D961E089
:101C1000A04330659902306D88433065FEF7EEFFD2
:101C20000546354C306D384206D1FEF7E7FF411BC3
:101C30000320A142F6D94DE002980028079900D070
:101C400009E6B06B019A9043B06304E6244832E0A1
:101C5000FD200004F1688143079B28330DCB084326
:101C600010431843F0602548401C3168014331603F
:101C7000FEF7C4FF04463068384200D009E6FEF79C
:101C8000BDFF011B03200229F5D923E00598440478
:101C9000FEF7B4FF05463068204200D1CAE5FEF7E2
:101CA000ADFF411B03206429F5D913E00C484243E2
:101CB000104600F073FFF1680906090F0A4A515CEB
:101CC000C840F34908600A480068FFF75FFB002836
:101CD00000D1B3E509B0F0BD00127A00A22D0008D2
:101CE0000024F40000093D00922D000808000020A7
:101CF000040000200070004088130000FFFFFF0078
:101D0000F0B583B000280AD00446503441218F003A
:101D1000416A002906D000210161142106E001205A
:101D200003B0F0BD4168B94202D01C2100224250EC
:101D30000021029181626178002905D10021217082
:101D4000054600F03BF828460223637001680A68E4
:101D50004025AA430A6042683A402125AD02019419
:101D600084682C40A4180122D502C6682E40A4190C
:101D700005691D402543446914402C43FC378369A1
:101D80001F402743C469382525403D43046A802607
:101D900026402E435403856A254035430D60446A2E
:101DA000102525401B0C04241C402B194B60029964
:101DB000416501984270084603B0F0BD10B586B089
:101DC0000021059104910391029101910068104A4C
:101DD000904201D006B010BD012002030D4B9C685B
:101DE00014439C601A6802431A601A680240009209
:101DF000059103200490039102200290A0200190FD
:101E000005200007009901A9FEF71CFE06B010BDD1
:101E1000003001402C100240F0B589B00593164601
:101E20000D46044607465037FEF7E8FE7978022251
:101E3000012952D104970127002D4FD0002E4DD0FB
:101E4000049909780129174648D00327049A577046
:101E500000216165E68601231370A6862563A187AC
:101E6000A163216461640291E18722680393D9032D
:101E70001346A2688A4208D119684022914319602A
:101E8000039989031A680A431A600690196849067B
:101E900003D4196840220A431A60019361684A42D8
:101EA0004A41731E5942594111430398C202E368E3
:101EB000934242D10029059E069B07D029880198AC
:101EC000C160A81C2063E08E401EE086E08E0028E2
:101ED000029D79D0701C0FD11FE01746384609B01B
:101EE000F0BD216B0A88C260881C2063E08E401E12
:101EF000E086E08E002867D0206881688907F0D4EA
:101F0000FEF77CFE069BC01AB042F2D33FE0FEF71C
:101F100075FE069BE08E002856D0206881688907F0
:101F2000F5D5216B0A88C260881C2063E08E401EB4
:101F3000E086E08E0028F0D146E00029059E069B51
:101F400008D0297801980173206B401C2063E08E33
:101F5000401EE086E08E0028029D35D0701C0CD11A
:101F600022E0216B09780173206B401C2063E08E16
:101F7000401EE086E08E002826D020688168890710
:101F8000EFD4FEF73BFE069BC01AB042F2D3049892
:101F9000057003994170384609B0F0BDFEF72EFE7A
:101FA000069BE08E00280FD0206881688907F5D550
:101FB000216B09780173206B401C2063E08E401E6A
:101FC000E086E08E0028EFD1009302210127204611
:101FD0003A46334600F0B4FA002817D0606D20214D
:101FE000084360656165A068002806D107952068F0
:101FF000C16807918068079007980498477005703A
:10200000676D781E8741384609B0F0BD20480068EA
:10201000204900F0C3FD7D21C900414308914120C2
:102020008000616881420AD10698009080210022D8
:102030002046334600F084FA0028CFD1D3E7089831
:102040000028D0D00898401E0890206880680006BC
:10205000C9D508980028C6D00898401E0890206866
:1020600080680006BFD508980028BCD00898401E9C
:102070000890206880680006B5D508980028B2D07E
:102080000898401E0890206880680006D7D4AAE708
:102090000800002000366E01401E010E01D0012014
:1020A00070470749074A5060074803680B400321FF
:1020B000890759180160002090600721116070475E
:1020C000FFFFFF0010E000E020ED00E0FEE7000071
:1020D000F0B585B00E460446403004902068816912
:1020E000C90606D400210F4601258269D30543D4D1
:1020F00046E01021C1618169890635D4711C30D058
:1021000015460120002E6AD186030390C703FEF70F
:1021100075FD206842680499897883693B4209D03B
:10212000324007D1202905D0416831434160FEF794
:1021300065FD054620688169890605D4FEF75EFDC8
:10214000401B1A28F6D375E081698906DFD50BE0BC
:102150008169890608D48169890605D4816989065F
:1021600002D481698906F3D52021C16101270421A8
:1021700001258269D30503D52B02C36129432F466C
:102180006B02560506D41A420AD1002F0BD100204B
:1021900005B0F0BDAD02C561082529431A4202D041
:1021A000C361022211438269920701D50022826233
:1021B0008269D20703D18269012313438361426894
:1021C000924B13404360606C084360642020049984
:1021D0004870002008708870012005B0F0BD8103B0
:1021E00002910390C0030190019F02E0816989067A
:1021F000BAD4FEF703FD411B2068B142F6D942680C
:102200000499897883693B420BD0029B1A4008D11C
:10221000202906D04168029A11434160FEF7EEFC86
:102220000546206881698906E0D4FEF7E7FC401B7B
:102230001A28F6D3206881692421039F0125826929
:10224000D30599D49CE7C046F0B585B00D46044649
:10225000006880690840401A4142414100260492CA
:10226000914223D11F460A9A581C03922BD0002F6B
:10227000029433D1002620463146FFF729FF00287B
:1022800028D1FEF7BBFC206881692940491B4A42DE
:102290004A4104998A42039A44D080692840401BED
:1022A0004142414104988142029CE3D0304605B04E
:1022B000F0BD206880692840401B4142414104989C
:1022C0008142039AF2D10026F1432046FFF700FF36
:1022D0000028EED00126304605B0F0BD019507E09C
:1022E00080692840401B4142414104988142DDD130
:1022F0003446029E304639461546FFF7E9FE00286F
:10230000E8D1FEF77BFC411B3068B9422A462646DD
:10231000019DE5D981692940491B4B424B410499F4
:102320008B42DDD1029B18464030596C202211436C
:10233000596442700021017081700126304605B059
:10234000F0BD0000F0B583B0044600688069400726
:102350004BD40D462046403000900292204629463C
:10236000FFF7B6FE411E07468F4121688A69202388
:10237000002801931AD11A4018D088698A69D206B8
:1023800005D400216164400710D50F460EE01020EF
:10239000C86104206064CB6148681C4A10404860F2
:1023A00000994B700020087088700127681E2E4627
:1023B0008641FEF723FC029A801AA84204D9002124
:1023C00020680E4204D008E0012120680E4204D1AA
:1023D000002F02D1816949070BD58069400701D4DC
:1023E000002FBBD0384603B0F0BD0027384603B0FD
:1023F000F0BD616C019B19436164009A5370002128
:10240000117080690127384603B0F0BD00E800FE76
:10241000F0B581B00546006880690024800622D4AA
:1024200016460F46002903D129E0806980061AD498
:10243000284639463246FFF74BFE002827D1FEF7E3
:10244000DDFB811B2868B942EFD981698906ECD48C
:1024500028464030696C2022114369644270002193
:10246000017081700124204601B0F0BDFEF7C6FB6B
:10247000286881698906EBD580698006F3D4002439
:10248000284621463246FFF723FE0028EED00124DD
:10249000204601B0F0BDF0B581B005460068806906
:1024A0000024800716D416460F46481C19D0002F6A
:1024B00026D10024284621463246FFF709FE00288F
:1024C00038D1FEF79BFB28688169890728D5806988
:1024D0008007EED5204601B0F0BD286880698007EE
:1024E000F8D40024E14328463246FFF7F1FD0028E6
:1024F000F3D00124204601B0F0BD80698007E9D403
:10250000284639463246FFF7E3FD002812D1FEF790
:1025100075FB811B2868B942EFD981698907ECD422
:1025200028464030696C20221143696442700021C2
:10253000017081700124204601B0F0BDFEE77047B4
:10254000F0B583B01F4614460D460190089EFEF775
:1025500055FB301A0097C619FEF750FB019B074642
:102560003B4800684001000D70430290196888687C
:102570002840401B424242410020A24201D103B008
:10258000F0BD009A521C30D05033009308E012681E
:1025900092682A40521B53425341A3420E46EED04A
:1025A000FEF72CFBC01BB04227D200200299002965
:1025B0000146019AEBD00299491E02913146E6E7A5
:1025C0008A682A40521B53425341A342D7D08A689B
:1025D0002A40521B53425341A342D0D08A682A401A
:1025E000521B53425341A342C9D08A682A40521B0E
:1025F00053425341A342E3D1C1E7019B18684168AC
:10260000E02291434160412189005A688A420CD1FD
:1026100099680122D3039942019B02D09202914210
:1026200003D1016840229143016001214A039B6A62
:10263000934205D103689343036003681343036027
:102640000020009A10705170032003B0F0BDC04606
:1026500008000020704780B5FEF77AFE80BD704705
:10266000F0B589B005462D48089064270097544E70
:102670001036AA2408AA042306933046214604945F
:10268000FEF72AFC264807900597009707AA3046D0
:102690002146069C2346FEF71FFC2248089000971F
:1026A00008AA3046049F39462346FEF715FC3C2015
:1026B0004121295428463C304B21817043214170EF
:1026C0000020C04310213035009501910290FB227B
:1026D000012330463C463946FEF7E2FC0F4808909D
:1026E000059F009708AA30462146069D2B46FEF717
:1026F000F3FB0D480790009707AA304621462B466A
:10270000FEF7EAFB07480890009708AA30462146E2
:102710002B46FEF7E1FB09B0F0BDC046FE004000CD
:10272000FE000100FE004040FE00010170B58CB0CB
:1027300004466D46302628463146FDF7A6FD204664
:1027400029463246FDF756FD01460020002901D0FA
:102750000CB070BD3A34A1784629F9D1E1785029FE
:102760000AD160782178164A0023090208185060BF
:10277000936001200CB070BDE1785329E8D1104D71
:102780006878002812D1E86800280FD02521CC01F4
:10279000C109242906D80B494618FF20FEF78BF8FB
:1027A000761CFAD30120A8706870EC600124E10364
:1027B000F1482246FEF719FA20462C700CB070BD85
:1027C0007000002080EDFFFFF0B5A7B0FEF7CAFD56
:1027D0000CAC34212046FDF758FD002626962596A0
:1027E000249623962296219620961F961E961D9635
:1027F0001C9603200B90C002DD490A688243012524
:102800001295E802101808601596052778031490B1
:10281000139610200C902046FEF7E8FF002803D006
:10282000EFF3108072B6FEE709970A9523960F2002
:10283000229024962596269622A83146FEF7C6FEBB
:10284000002803D0EFF3108072B6FEE72096082030
:102850001C901CA8FEF7E4FD002803D0EFF31080C5
:1028600072B6FEE710960F960E960D960C96C1481E
:102870000168042211430160016811401C911C99F8
:1028800001680A9C21430160006820401C901C984C
:102890000B988703B84839463246FEF7A6F90998DF
:1028A000050743210B9128463246FEF79EF90F9605
:1028B0000E960D940C970CAFAF483946FEF7C2F850
:1028C0000F960E960D940B980C9028463946FEF7FD
:1028D000B9F80E940D9660020B900C90099528465D
:1028E0003946FEF7AFF8A54AC120C000A4491161DE
:1028F00050619661D461166256629662D662166322
:10290000164610363046FEF7C1F9002803D0EFF323
:10291000108072B6FEE70B9D00213046FEF774F979
:10292000002803D0EFF3108072B6FEE70024304693
:102930002146FEF78AF9002803D0EFF3108072B623
:10294000FEE7904890490722046244628462C262B2
:102950002A46FC3A16C0046044608460C560046185
:102960000C38FFF7CDF9002803D0EFF3108072B6D2
:10297000FEE70A9AD503804C20462946FEF735F932
:10298000FDF7D4FCFDF7DFFF002220460295294623
:102990000792FEF72AF90CA801463031049101464E
:1029A000203103911030059004E0744F38780028EE
:1029B00000D0BFE076480C9064270097AA240CAAA8
:1029C000042330462146FEF787FA1CAD079828708D
:1029D0000CAA704810800097022330462146FEF76B
:1029E0007BFA089700970123304621462A46FEF7D6
:1029F000A7F92878C006D8D51CADF8202870089F04
:102A00000097AA2401230A93304621462A46FEF75E
:102A100063FA00970CAA069210230B9330462146C6
:102A2000FEF78EF9F92028700097304621462A4695
:102A30000A9BFEF751FA009730462146059A0B9BF8
:102A4000FEF77EF9FA2028700097304621462A4684
:102A50000A9BFEF741FA009730462146039A0B9BEA
:102A6000FEF76EF9FB2028700097304621462A4673
:102A70000A9D2B46FEF730FA009730462146049A0D
:102A80000B9BFEF75DF90698FFF750FE00288CD1EE
:102A90003A4F787800280CD0B8684030B860796830
:102AA000491E814281D20CA8FFF7DAFD0798B86071
:102AB0007BE72C46F86835498842099D0CD9BC70E3
:102AC0007C70F878002807D1FDF75AFF2A48029950
:102AD0002246FEF78AF8FC70012428462146224649
:102AE000FEF783F82F460225002238462946FEF7D6
:102AF0007CF80CA84021FDF70DFC38461F4F2946F5
:102B00002246FEF772F8F8684030F86079780029BC
:102B1000C2D11E498842BFD9BC707C70F8780028A9
:102B2000BAD1FDF72DFF144802992246FEF75DF851
:102B3000FC70B1E7B878002815D0F878002801D1EA
:102B4000FDF71EFF14480C9008980090AA210CAACB
:102B500004233046FEF7C0F9FDF7C8FE01220648FF
:102B60000299FEF742F8FDF733FE002027B0F0BDD2
:102B7000007000402C10024000080050700000203F
:102B800000540040D4000020003001407F120000BB
:102B9000FE004040FE060000FE00400043088B425D
:102BA0001AD3002203098B4279D3030A8B425ED3E6
:102BB000030B8B4242D3030C8B4227D30902FF2223
:102BC00012BA030C8B4202D31212090203D0030B78
:102BD0008B4233D31AE0D3E0411A8041401C704746
:102BE00003460B4371D443088B42F5D300220309FB
:102BF0008B4254D3030A8B4239D3030B8B421DD330
:102C0000030C8B4202D394466EE0090AC30B8B423D
:102C100001D3CB03C01A5241830B8B4201D38B03E8
:102C2000C01A5241430B8B4201D34B03C01A52418D
:102C3000030B8B4201D30B03C01A5241C30A8B42D0
:102C400001D3CB02C01A5241830A8B4201D38B02BB
:102C5000C01A5241430A8B4201D34B02C01A52415F
:102C6000030A8B4201D30B02C01A5241CDD2C309D1
:102C70008B4201D3CB01C01A524183098B4201D34D
:102C80008B01C01A524143098B4201D34B01C01A38
:102C9000524103098B4201D30B01C01A5241C308B0
:102CA0008B4201D3CB00C01A524183088B4201D31F
:102CB0008B00C01A524143088B4201D34B00C01A0B
:102CC0005241411A524110007047CA0F00D0494288
:102CD000031000D34042534000229C4603098B421C
:102CE0002DD3030A8B4212D38901FC2212BA030AA4
:102CF0008B420CD3890192118B4208D38901921126
:102D00008B4204D3890137D0921100E08909C309AD
:102D10008B4201D3CB01C01A524183098B4201D3AC
:102D20008B01C01A524143098B4201D34B01C01A97
:102D3000524103098B4201D30B01C01A5241C3080F
:102D40008B4201D3CB00C01A524183088B4201D37E
:102D50008B00C01A5241D9D243088B4201D34B0099
:102D6000C01A5241411A00D20146524110466346F0
:102D70005B1000D34042704763465B1000D3404273
:102D800001B50021004201D0C9430846C046C046F3
:102D900002BD00000000000000000102030406075D
:102DA0000809030406080C1018203000D02D000874
:102DB00000000020100000001C010008E02D0008A9
:102DC00010000020200700003C0100080000000067
:102DD00001000000040000000000200000000000CE
:04000005080000C12E
:00000001FF
